{
  "address": "0xD30C778F7Fd47CCfB93Caa589195eb288FC768c8",
  "abi": [
    {
      "inputs": [],
      "stateMutability": "nonpayable",
      "type": "constructor"
    },
    {
      "inputs": [],
      "name": "InvalidShortString",
      "type": "error"
    },
    {
      "inputs": [],
      "name": "SignerNotMessageSender",
      "type": "error"
    },
    {
      "inputs": [],
      "name": "SignerNotOwner",
      "type": "error"
    },
    {
      "inputs": [
        {
          "internalType": "string",
          "name": "str",
          "type": "string"
        }
      ],
      "name": "StringTooLong",
      "type": "error"
    },
    {
      "anonymous": false,
      "inputs": [],
      "name": "EIP712DomainChanged",
      "type": "event"
    },
    {
      "inputs": [
        {
          "components": [
            {
              "internalType": "bytes",
              "name": "data",
              "type": "bytes"
            }
          ],
          "internalType": "struct inEuint32",
          "name": "_amount0",
          "type": "tuple"
        },
        {
          "components": [
            {
              "internalType": "bytes",
              "name": "data",
              "type": "bytes"
            }
          ],
          "internalType": "struct inEuint32",
          "name": "_amount1",
          "type": "tuple"
        }
      ],
      "name": "addLiquidity",
      "outputs": [
        {
          "internalType": "euint32",
          "name": "shares",
          "type": "uint256"
        }
      ],
      "stateMutability": "nonpayable",
      "type": "function"
    },
    {
      "inputs": [
        {
          "internalType": "address",
          "name": "wallet",
          "type": "address"
        },
        {
          "components": [
            {
              "internalType": "bytes32",
              "name": "publicKey",
              "type": "bytes32"
            },
            {
              "internalType": "bytes",
              "name": "signature",
              "type": "bytes"
            }
          ],
          "internalType": "struct Permission",
          "name": "permission",
          "type": "tuple"
        }
      ],
      "name": "balanceOf",
      "outputs": [
        {
          "internalType": "bytes",
          "name": "",
          "type": "bytes"
        }
      ],
      "stateMutability": "view",
      "type": "function"
    },
    {
      "inputs": [],
      "name": "eip712Domain",
      "outputs": [
        {
          "internalType": "bytes1",
          "name": "fields",
          "type": "bytes1"
        },
        {
          "internalType": "string",
          "name": "name",
          "type": "string"
        },
        {
          "internalType": "string",
          "name": "version",
          "type": "string"
        },
        {
          "internalType": "uint256",
          "name": "chainId",
          "type": "uint256"
        },
        {
          "internalType": "address",
          "name": "verifyingContract",
          "type": "address"
        },
        {
          "internalType": "bytes32",
          "name": "salt",
          "type": "bytes32"
        },
        {
          "internalType": "uint256[]",
          "name": "extensions",
          "type": "uint256[]"
        }
      ],
      "stateMutability": "view",
      "type": "function"
    },
    {
      "inputs": [],
      "name": "factory",
      "outputs": [
        {
          "internalType": "address",
          "name": "",
          "type": "address"
        }
      ],
      "stateMutability": "view",
      "type": "function"
    },
    {
      "inputs": [
        {
          "internalType": "address",
          "name": "_token0",
          "type": "address"
        },
        {
          "internalType": "address",
          "name": "_token1",
          "type": "address"
        }
      ],
      "name": "initialize",
      "outputs": [],
      "stateMutability": "nonpayable",
      "type": "function"
    },
    {
      "inputs": [
        {
          "components": [
            {
              "internalType": "bytes",
              "name": "data",
              "type": "bytes"
            }
          ],
          "internalType": "struct inEuint32",
          "name": "_shares",
          "type": "tuple"
        }
      ],
      "name": "removeLiquidity",
      "outputs": [
        {
          "internalType": "euint32",
          "name": "amount0",
          "type": "uint256"
        },
        {
          "internalType": "euint32",
          "name": "amount1",
          "type": "uint256"
        }
      ],
      "stateMutability": "nonpayable",
      "type": "function"
    },
    {
      "inputs": [],
      "name": "reserve0",
      "outputs": [
        {
          "internalType": "euint32",
          "name": "",
          "type": "uint256"
        }
      ],
      "stateMutability": "view",
      "type": "function"
    },
    {
      "inputs": [],
      "name": "reserve1",
      "outputs": [
        {
          "internalType": "euint32",
          "name": "",
          "type": "uint256"
        }
      ],
      "stateMutability": "view",
      "type": "function"
    },
    {
      "inputs": [
        {
          "internalType": "address",
          "name": "_tokenIn",
          "type": "address"
        },
        {
          "components": [
            {
              "internalType": "bytes",
              "name": "data",
              "type": "bytes"
            }
          ],
          "internalType": "struct inEuint32",
          "name": "_amountIn",
          "type": "tuple"
        }
      ],
      "name": "swap",
      "outputs": [
        {
          "internalType": "euint32",
          "name": "amountOut",
          "type": "uint256"
        }
      ],
      "stateMutability": "nonpayable",
      "type": "function"
    },
    {
      "inputs": [],
      "name": "token0",
      "outputs": [
        {
          "internalType": "contract IEncryptedERC20",
          "name": "",
          "type": "address"
        }
      ],
      "stateMutability": "view",
      "type": "function"
    },
    {
      "inputs": [],
      "name": "token1",
      "outputs": [
        {
          "internalType": "contract IEncryptedERC20",
          "name": "",
          "type": "address"
        }
      ],
      "stateMutability": "view",
      "type": "function"
    },
    {
      "inputs": [],
      "name": "totalSupply",
      "outputs": [
        {
          "internalType": "euint32",
          "name": "",
          "type": "uint256"
        }
      ],
      "stateMutability": "view",
      "type": "function"
    }
  ],
  "transactionHash": "0xfebe9ff87b201ee3c67a87cf04a54e218358433ccca65cdd96ed083ad4c0870d",
  "args": [],
  "numDeployments": 1,
  "solcInputHash": "b981e83bc18079b45d233899dbd2df97",
  "bytecode": "0x6101606040523480156200001257600080fd5b506040518060400160405280601181526020017f4668656e6978205065726d697373696f6e0000000000000000000000000000008152506040518060400160405280600381526020017f312e300000000000000000000000000000000000000000000000000000000000815250620000956000836200017660201b90919060201c565b6101208181525050620000b36001826200017660201b90919060201c565b6101408181525050818051906020012060e08181525050808051906020012061010081815250504660a08181525050620000f2620001ce60201b60201c565b608081815250503073ffffffffffffffffffffffffffffffffffffffff1660c08173ffffffffffffffffffffffffffffffffffffffff1681525050505033600460006101000a81548173ffffffffffffffffffffffffffffffffffffffff021916908373ffffffffffffffffffffffffffffffffffffffff16021790555062000826565b60006020835110156200019c5762000194836200022b60201b60201c565b9050620001c8565b82620001ae836200029860201b60201c565b6000019081620001bf91906200051c565b5060ff60001b90505b92915050565b60007f8b73c3c69bb8fe3d512ecc4cf759cc79239f7b179b0ffacaa9a75d522b39400f60e0516101005146306040516020016200021095949392919062000674565b60405160208183030381529060405280519060200120905090565b600080829050601f815111156200027b57826040517f305a27a900000000000000000000000000000000000000000000000000000000815260040162000272919062000760565b60405180910390fd5b8051816200028990620007b6565b60001c1760001b915050919050565b6000819050919050565b600081519050919050565b7f4e487b7100000000000000000000000000000000000000000000000000000000600052604160045260246000fd5b7f4e487b7100000000000000000000000000000000000000000000000000000000600052602260045260246000fd5b600060028204905060018216806200032457607f821691505b6020821081036200033a5762000339620002dc565b5b50919050565b60008190508160005260206000209050919050565b60006020601f8301049050919050565b600082821b905092915050565b600060088302620003a47fffffffffffffffffffffffffffffffffffffffffffffffffffffffffffffffff8262000365565b620003b0868362000365565b95508019841693508086168417925050509392505050565b6000819050919050565b6000819050919050565b6000620003fd620003f7620003f184620003c8565b620003d2565b620003c8565b9050919050565b6000819050919050565b6200041983620003dc565b62000431620004288262000404565b84845462000372565b825550505050565b600090565b6200044862000439565b620004558184846200040e565b505050565b5b818110156200047d57620004716000826200043e565b6001810190506200045b565b5050565b601f821115620004cc57620004968162000340565b620004a18462000355565b81016020851015620004b1578190505b620004c9620004c08562000355565b8301826200045a565b50505b505050565b600082821c905092915050565b6000620004f160001984600802620004d1565b1980831691505092915050565b60006200050c8383620004de565b9150826002028217905092915050565b6200052782620002a2565b67ffffffffffffffff811115620005435762000542620002ad565b5b6200054f82546200030b565b6200055c82828562000481565b600060209050601f8311600181146200059457600084156200057f578287015190505b6200058b8582620004fe565b865550620005fb565b601f198416620005a48662000340565b60005b82811015620005ce57848901518255600182019150602085019450602081019050620005a7565b86831015620005ee5784890151620005ea601f891682620004de565b8355505b6001600288020188555050505b505050505050565b6000819050919050565b620006188162000603565b82525050565b6200062981620003c8565b82525050565b600073ffffffffffffffffffffffffffffffffffffffff82169050919050565b60006200065c826200062f565b9050919050565b6200066e816200064f565b82525050565b600060a0820190506200068b60008301886200060d565b6200069a60208301876200060d565b620006a960408301866200060d565b620006b860608301856200061e565b620006c7608083018462000663565b9695505050505050565b600082825260208201905092915050565b60005b8381101562000702578082015181840152602081019050620006e5565b60008484015250505050565b6000601f19601f8301169050919050565b60006200072c82620002a2565b620007388185620006d1565b93506200074a818560208601620006e2565b62000755816200070e565b840191505092915050565b600060208201905081810360008301526200077c81846200071f565b905092915050565b600081519050919050565b6000819050602082019050919050565b6000620007ad825162000603565b80915050919050565b6000620007c38262000784565b82620007cf846200078f565b9050620007dc816200079f565b925060208210156200081f576200081a7fffffffffffffffffffffffffffffffffffffffffffffffffffffffffffffffff8360200360080262000365565b831692505b5050919050565b60805160a05160c05160e0516101005161012051610140516133bb620008816000396000610fc801526000610f9401526000612302015260006122e101526000611e5501526000611eab01526000611ed401526133bb6000f3fe608060405234801561001057600080fd5b50600436106100b45760003560e01c80635b18de5f116100715780635b18de5f1461017d57806374bfd999146101ae57806384b0196e146101de578063c45a015514610202578063d21220a714610220578063d432419c1461023e576100b4565b80630dfe1681146100b957806318160ddd146100d7578063443cb4bc146100f5578063485cc9551461011357806352dc02911461012f5780635a76f25e1461015f575b600080fd5b6100c161026e565b6040516100ce91906124b3565b60405180910390f35b6100df610294565b6040516100ec9190612509565b60405180910390f35b6100fd61029a565b60405161010a9190612509565b60405180910390f35b61012d60048036038101906101289190612576565b6102a0565b005b610149600480360381019061014491906125da565b6103b6565b6040516101569190612509565b60405180910390f35b6101676107b2565b6040516101749190612509565b60405180910390f35b61019760048036038101906101929190612652565b6107b8565b6040516101a592919061269b565b60405180910390f35b6101c860048036038101906101c391906126c4565b610ae5565b6040516101d59190612509565b60405180910390f35b6101e6610f81565b6040516101f997969594939291906128e0565b60405180910390f35b61020a611083565b6040516102179190612964565b60405180910390f35b6102286110a9565b60405161023591906124b3565b60405180910390f35b6102586004803603810190610253919061299e565b6110cf565b6040516102659190612a4f565b60405180910390f35b600260009054906101000a900473ffffffffffffffffffffffffffffffffffffffff1681565b60075481565b60055481565b600460009054906101000a900473ffffffffffffffffffffffffffffffffffffffff1673ffffffffffffffffffffffffffffffffffffffff163373ffffffffffffffffffffffffffffffffffffffff1614610330576040517f08c379a000000000000000000000000000000000000000000000000000000000815260040161032790612abd565b60405180910390fd5b81600260006101000a81548173ffffffffffffffffffffffffffffffffffffffff021916908373ffffffffffffffffffffffffffffffffffffffff16021790555080600360006101000a81548173ffffffffffffffffffffffffffffffffffffffff021916908373ffffffffffffffffffffffffffffffffffffffff1602179055505050565b6000806103cb846103c690612c74565b611203565b905060006103e1846103dc90612c74565b611203565b90506000600260009054906101000a900473ffffffffffffffffffffffffffffffffffffffff1673ffffffffffffffffffffffffffffffffffffffff166323b872dd3330866040518463ffffffff1660e01b815260040161044493929190612c87565b6020604051808303816000875af1158015610463573d6000803e3d6000fd5b505050506040513d601f19601f820116820180604052508101906104879190612cf6565b90506000600360009054906101000a900473ffffffffffffffffffffffffffffffffffffffff1673ffffffffffffffffffffffffffffffffffffffff166323b872dd3330866040518463ffffffff1660e01b81526004016104ea93929190612c87565b6020604051808303816000875af1158015610509573d6000803e3d6000fd5b505050506040513d601f19601f8201168201806040525081019061052d9190612cf6565b90508180156105395750805b61054257600080fd5b6105686105636105526000611219565b60055461122d90919063ffffffff16565b611241565b80610595575061059461058f61057e6000611219565b60065461122d90919063ffffffff16565b611241565b5b156105c3576105c26105bd6105ac60055487611304565b6105b860065487611304565b61137d565b6113f6565b5b6105e06105db6007546105d66000611219565b6114ab565b611241565b156105fe576105f76105f28585611304565b611524565b9450610643565b600061061761060f86600754611304565b6005546115f2565b9050600061063261062a86600754611304565b6006546115f2565b905061063e828261166b565b965050505b61065e610659866106546000611219565b6114ab565b6113f6565b6106683386611696565b6107a8600260009054906101000a900473ffffffffffffffffffffffffffffffffffffffff1673ffffffffffffffffffffffffffffffffffffffff16633808c58b306040518263ffffffff1660e01b81526004016106c69190612964565b602060405180830381865afa1580156106e3573d6000803e3d6000fd5b505050506040513d601f19601f820116820180604052508101906107079190612d4f565b600360009054906101000a900473ffffffffffffffffffffffffffffffffffffffff1673ffffffffffffffffffffffffffffffffffffffff16633808c58b306040518263ffffffff1660e01b81526004016107629190612964565b602060405180830381865afa15801561077f573d6000803e3d6000fd5b505050506040513d601f19601f820116820180604052508101906107a39190612d4f565b611738565b5050505092915050565b60065481565b60008060006107cf846107ca90612c74565b611203565b90506000600260009054906101000a900473ffffffffffffffffffffffffffffffffffffffff1673ffffffffffffffffffffffffffffffffffffffff16633808c58b306040518263ffffffff1660e01b815260040161082e9190612964565b602060405180830381865afa15801561084b573d6000803e3d6000fd5b505050506040513d601f19601f8201168201806040525081019061086f9190612d4f565b90506000600360009054906101000a900473ffffffffffffffffffffffffffffffffffffffff1673ffffffffffffffffffffffffffffffffffffffff16633808c58b306040518263ffffffff1660e01b81526004016108ce9190612964565b602060405180830381865afa1580156108eb573d6000803e3d6000fd5b505050506040513d601f19601f8201168201806040525081019061090f9190612d4f565b905061092661091e8484611304565b6007546115f2565b945061093d6109358483611304565b6007546115f2565b9350610975610970610958876109536000611219565b6114ab565b61096b876109666000611219565b6114ab565b61174a565b6113f6565b61097f33846117c3565b61099b61098c8387611865565b6109968387611865565b611738565b600260009054906101000a900473ffffffffffffffffffffffffffffffffffffffff1673ffffffffffffffffffffffffffffffffffffffff1663a9059cbb33876040518363ffffffff1660e01b81526004016109f8929190612d7c565b6020604051808303816000875af1158015610a17573d6000803e3d6000fd5b505050506040513d601f19601f82011682018060405250810190610a3b9190612cf6565b50600360009054906101000a900473ffffffffffffffffffffffffffffffffffffffff1673ffffffffffffffffffffffffffffffffffffffff1663a9059cbb33866040518363ffffffff1660e01b8152600401610a99929190612d7c565b6020604051808303816000875af1158015610ab8573d6000803e3d6000fd5b505050506040513d601f19601f82011682018060405250810190610adc9190612cf6565b50505050915091565b6000600260009054906101000a900473ffffffffffffffffffffffffffffffffffffffff1673ffffffffffffffffffffffffffffffffffffffff168373ffffffffffffffffffffffffffffffffffffffff161480610b905750600360009054906101000a900473ffffffffffffffffffffffffffffffffffffffff1673ffffffffffffffffffffffffffffffffffffffff168373ffffffffffffffffffffffffffffffffffffffff16145b610bcf576040517f08c379a0000000000000000000000000000000000000000000000000000000008152600401610bc690612df1565b60405180910390fd5b6000600260009054906101000a900473ffffffffffffffffffffffffffffffffffffffff1673ffffffffffffffffffffffffffffffffffffffff168473ffffffffffffffffffffffffffffffffffffffff1614905060008060008084610c8057600360009054906101000a900473ffffffffffffffffffffffffffffffffffffffff16600260009054906101000a900473ffffffffffffffffffffffffffffffffffffffff16600654600554610ccd565b600260009054906101000a900473ffffffffffffffffffffffffffffffffffffffff16600360009054906101000a900473ffffffffffffffffffffffffffffffffffffffff166005546006545b93509350935093506000610ce988610ce490612c74565b611203565b90508473ffffffffffffffffffffffffffffffffffffffff166323b872dd3330846040518463ffffffff1660e01b8152600401610d2893929190612c87565b6020604051808303816000875af1158015610d47573d6000803e3d6000fd5b505050506040513d601f19601f82011682018060405250810190610d6b9190612cf6565b506000610d95610d8583610d806103e5611219565b611304565b610d906103e8611219565b6115f2565b9050610db3610da48483611304565b610dae8684611879565b6115f2565b97508473ffffffffffffffffffffffffffffffffffffffff1663a9059cbb338a6040518363ffffffff1660e01b8152600401610df0929190612d7c565b6020604051808303816000875af1158015610e0f573d6000803e3d6000fd5b505050506040513d601f19601f82011682018060405250810190610e339190612cf6565b50610f74600260009054906101000a900473ffffffffffffffffffffffffffffffffffffffff1673ffffffffffffffffffffffffffffffffffffffff16633808c58b306040518263ffffffff1660e01b8152600401610e929190612964565b602060405180830381865afa158015610eaf573d6000803e3d6000fd5b505050506040513d601f19601f82011682018060405250810190610ed39190612d4f565b600360009054906101000a900473ffffffffffffffffffffffffffffffffffffffff1673ffffffffffffffffffffffffffffffffffffffff16633808c58b306040518263ffffffff1660e01b8152600401610f2e9190612964565b602060405180830381865afa158015610f4b573d6000803e3d6000fd5b505050506040513d601f19601f82011682018060405250810190610f6f9190612d4f565b611738565b5050505050505092915050565b600060608060008060006060610fc160007f00000000000000000000000000000000000000000000000000000000000000006118f190919063ffffffff16565b610ff560017f00000000000000000000000000000000000000000000000000000000000000006118f190919063ffffffff16565b46306000801b600067ffffffffffffffff81111561101657611015612ae2565b5b6040519080825280602002602001820160405280156110445781602001602082028036833780820191505090505b507f0f00000000000000000000000000000000000000000000000000000000000000959493929190965096509650965096509650965090919293949596565b600460009054906101000a900473ffffffffffffffffffffffffffffffffffffffff1681565b600360009054906101000a900473ffffffffffffffffffffffffffffffffffffffff1681565b6060816110db90612ea9565b60006111327f6bdaeb2d29561f159c7ef98b16b27015fb2aeb87209c7ee656226d912f59927d8360000151604051602001611117929190612ebc565b604051602081830303815290604052805190602001206119a1565b905060006111448284602001516119bb565b90503373ffffffffffffffffffffffffffffffffffffffff168173ffffffffffffffffffffffffffffffffffffffff16146111ab576040517f3093a27700000000000000000000000000000000000000000000000000000000815260040160405180910390fd5b6111f8600860008873ffffffffffffffffffffffffffffffffffffffff1673ffffffffffffffffffffffffffffffffffffffff1681526020019081526020016000205486600001356119e2565b935050505092915050565b60006112128260000151611a18565b9050919050565b6000611226826002611a2c565b9050919050565b600061123983836114ab565b905092915050565b600061124c82611ace565b61125d5761125a6000611adb565b91505b6000829050600061126d82611aef565b90506000608073ffffffffffffffffffffffffffffffffffffffff166373cc01546000846040518363ffffffff1660e01b81526004016112ae929190612f01565b602060405180830381865afa1580156112cb573d6000803e3d6000fd5b505050506040513d601f19601f820116820180604052508101906112ef9190612f5d565b90506112fa81611b4c565b9350505050919050565b600061130f83611b58565b6113205761131d6000611219565b92505b61132982611b58565b61133a576113376000611219565b91505b60008390506000839050600061136f60028484608073ffffffffffffffffffffffffffffffffffffffff16634284f765611b65565b905080935050505092915050565b600061138883611b58565b611399576113966000611219565b92505b6113a282611b58565b6113b3576113b06000611219565b91505b6000839050600083905060006113e860028484608073ffffffffffffffffffffffffffffffffffffffff166392348b34611b65565b905080935050505092915050565b6113ff81611ace565b6114105761140d6000611adb565b90505b6000819050600061142082611aef565b9050608073ffffffffffffffffffffffffffffffffffffffff16637d23f1db6000836040518363ffffffff1660e01b815260040161145f929190612f01565b600060405180830381865afa15801561147c573d6000803e3d6000fd5b505050506040513d6000823e3d601f19601f820116820180604052508101906114a59190612ffa565b50505050565b60006114b683611b58565b6114c7576114c46000611219565b92505b6114d082611b58565b6114e1576114de6000611219565b91505b60008390506000839050600061151660028484608073ffffffffffffffffffffffffffffffffffffffff1663874b1c10611b65565b905080935050505092915050565b600061154161153c836115376003611219565b6114ab565b611241565b156115bf5781905060006115706115618461155c6002611219565b6115f2565b61156b6001611219565b611879565b90505b6115856115808284611bf9565b611241565b156115b9578091506115b26115a38461159e8485611879565b6115f2565b6115ad6002611219565b6115f2565b9050611573565b506115ed565b6115da6115d5836115d06000611219565b611c72565b611241565b156115ec576115e96001611219565b90505b5b919050565b60006115fd83611b58565b61160e5761160b6000611219565b92505b61161782611b58565b611628576116256000611219565b91505b60008390506000839050600061165d60028484608073ffffffffffffffffffffffffffffffffffffffff16631f4cda2f611b65565b905080935050505092915050565b600061167f61167a8484611ceb565b611241565b1561168c57829050611690565b8190505b92915050565b6116df600860008473ffffffffffffffffffffffffffffffffffffffff1673ffffffffffffffffffffffffffffffffffffffff1681526020019081526020016000205482611879565b600860008473ffffffffffffffffffffffffffffffffffffffff1673ffffffffffffffffffffffffffffffffffffffff1681526020019081526020016000208190555061172e60075482611879565b6007819055505050565b81600581905550806006819055505050565b600061175583611ace565b611766576117636000611adb565b92505b61176f82611ace565b6117805761177d6000611adb565b91505b6000839050600083905060006117b560008484608073ffffffffffffffffffffffffffffffffffffffff1663ae104cfd611b65565b905080935050505092915050565b61180c600860008473ffffffffffffffffffffffffffffffffffffffff1673ffffffffffffffffffffffffffffffffffffffff1681526020019081526020016000205482611d64565b600860008473ffffffffffffffffffffffffffffffffffffffff1673ffffffffffffffffffffffffffffffffffffffff1681526020019081526020016000208190555061185b60075482611d64565b6007819055505050565b60006118718383611d64565b905092915050565b600061188483611b58565b611895576118926000611219565b92505b61189e82611b58565b6118af576118ac6000611219565b91505b6000839050600083905060006118e360028484608073ffffffffffffffffffffffffffffffffffffffff16622df619611b65565b905080935050505092915050565b606060ff60001b831461190e5761190783611ddd565b905061199b565b81805461191a90613072565b80601f016020809104026020016040519081016040528092919081815260200182805461194690613072565b80156119935780601f1061196857610100808354040283529160200191611993565b820191906000526020600020905b81548152906001019060200180831161197657829003601f168201915b505050505090505b92915050565b60006119b46119ae611e51565b83611f08565b9050919050565b60008060006119ca8585611f49565b915091506119d781611f9a565b819250505092915050565b60606119ed83611b58565b6119fe576119fb6000611219565b92505b6000839050611a0f60028285612100565b91505092915050565b6000611a258260026121b6565b9050919050565b60006060608073ffffffffffffffffffffffffffffffffffffffff166319e1c5c4611a5686611aef565b856040518363ffffffff1660e01b8152600401611a749291906130a3565b600060405180830381865afa158015611a91573d6000803e3d6000fd5b505050506040513d6000823e3d601f19601f82011682018060405250810190611aba9190612ffa565b9050611ac581612250565b91505092915050565b6000808214159050919050565b6000611ae8826000611a2c565b9050919050565b6060602067ffffffffffffffff811115611b0c57611b0b612ae2565b5b6040519080825280601f01601f191660200182016040528015611b3e5781602001600182028036833780820191505090505b509050816020820152919050565b60008082119050919050565b6000808214159050919050565b60006060838388611b7589611aef565b611b7e89611aef565b6040518463ffffffff1660e01b8152600401611b9c939291906130d3565b600060405180830381865afa158015611bb9573d6000803e3d6000fd5b505050506040513d6000823e3d601f19601f82011682018060405250810190611be29190612ffa565b9050611bed8161225e565b91505095945050505050565b6000611c0483611b58565b611c1557611c126000611219565b92505b611c1e82611b58565b611c2f57611c2c6000611219565b91505b600083905060008390506000611c6460028484608073ffffffffffffffffffffffffffffffffffffffff1663b9c7a54b611b65565b905080935050505092915050565b6000611c7d83611b58565b611c8e57611c8b6000611219565b92505b611c9782611b58565b611ca857611ca56000611219565b91505b600083905060008390506000611cdd60028484608073ffffffffffffffffffffffffffffffffffffffff166313c0c9ae611b65565b905080935050505092915050565b6000611cf683611b58565b611d0757611d046000611219565b92505b611d1082611b58565b611d2157611d1e6000611219565b91505b600083905060008390506000611d5660028484608073ffffffffffffffffffffffffffffffffffffffff1663eb274b77611b65565b905080935050505092915050565b6000611d6f83611b58565b611d8057611d7d6000611219565b92505b611d8982611b58565b611d9a57611d976000611219565b91505b600083905060008390506000611dcf60028484608073ffffffffffffffffffffffffffffffffffffffff1663cc2cbeff611b65565b905080935050505092915050565b60606000611dea8361226c565b90506000602067ffffffffffffffff811115611e0957611e08612ae2565b5b6040519080825280601f01601f191660200182016040528015611e3b5781602001600182028036833780820191505090505b5090508181528360208201528092505050919050565b60007f000000000000000000000000000000000000000000000000000000000000000073ffffffffffffffffffffffffffffffffffffffff163073ffffffffffffffffffffffffffffffffffffffff16148015611ecd57507f000000000000000000000000000000000000000000000000000000000000000046145b15611efa577f00000000000000000000000000000000000000000000000000000000000000009050611f05565b611f026122bc565b90505b90565b60006040517f190100000000000000000000000000000000000000000000000000000000000081528360028201528260228201526042812091505092915050565b6000806041835103611f8a5760008060006020860151925060408601519150606086015160001a9050611f7e87828585612352565b94509450505050611f93565b60006002915091505b9250929050565b60006004811115611fae57611fad613118565b5b816004811115611fc157611fc0613118565b5b03156120fd5760016004811115611fdb57611fda613118565b5b816004811115611fee57611fed613118565b5b0361202e576040517f08c379a000000000000000000000000000000000000000000000000000000000815260040161202590613193565b60405180910390fd5b6002600481111561204257612041613118565b5b81600481111561205557612054613118565b5b03612095576040517f08c379a000000000000000000000000000000000000000000000000000000000815260040161208c906131ff565b60405180910390fd5b600360048111156120a9576120a8613118565b5b8160048111156120bc576120bb613118565b5b036120fc576040517f08c379a00000000000000000000000000000000000000000000000000000000081526004016120f390613291565b60405180910390fd5b5b50565b6060608073ffffffffffffffffffffffffffffffffffffffff1663a1848ff38561212986611aef565b8560405160200161213a91906132d2565b6040516020818303038152906040526040518463ffffffff1660e01b8152600401612167939291906130d3565b600060405180830381865afa158015612184573d6000803e3d6000fd5b505050506040513d6000823e3d601f19601f820116820180604052508101906121ad9190612ffa565b90509392505050565b60006060608073ffffffffffffffffffffffffffffffffffffffff16635fa55ca784866040518363ffffffff1660e01b81526004016121f6929190612f01565b600060405180830381865afa158015612213573d6000803e3d6000fd5b505050506040513d6000823e3d601f19601f8201168201806040525081019061223c9190612ffa565b905061224781612250565b91505092915050565b600060208201519050919050565b600060208201519050919050565b60008060ff8360001c169050601f8111156122b3576040517fb3512b0c00000000000000000000000000000000000000000000000000000000815260040160405180910390fd5b80915050919050565b60007f8b73c3c69bb8fe3d512ecc4cf759cc79239f7b179b0ffacaa9a75d522b39400f7f00000000000000000000000000000000000000000000000000000000000000007f000000000000000000000000000000000000000000000000000000000000000046306040516020016123379594939291906132ed565b60405160208183030381529060405280519060200120905090565b6000807f7fffffffffffffffffffffffffffffff5d576e7357a4501ddfe92f46681b20a08360001c111561238d57600060039150915061242b565b6000600187878787604051600081526020016040526040516123b29493929190613340565b6020604051602081039080840390855afa1580156123d4573d6000803e3d6000fd5b505050602060405103519050600073ffffffffffffffffffffffffffffffffffffffff168173ffffffffffffffffffffffffffffffffffffffff16036124225760006001925092505061242b565b80600092509250505b94509492505050565b600073ffffffffffffffffffffffffffffffffffffffff82169050919050565b6000819050919050565b600061247961247461246f84612434565b612454565b612434565b9050919050565b600061248b8261245e565b9050919050565b600061249d82612480565b9050919050565b6124ad81612492565b82525050565b60006020820190506124c860008301846124a4565b92915050565b6000819050919050565b60006124f36124ee6124e9846124ce565b612454565b6124ce565b9050919050565b612503816124d8565b82525050565b600060208201905061251e60008301846124fa565b92915050565b6000604051905090565b600080fd5b600080fd5b600061254382612434565b9050919050565b61255381612538565b811461255e57600080fd5b50565b6000813590506125708161254a565b92915050565b6000806040838503121561258d5761258c61252e565b5b600061259b85828601612561565b92505060206125ac85828601612561565b9150509250929050565b600080fd5b6000602082840312156125d1576125d06125b6565b5b81905092915050565b600080604083850312156125f1576125f061252e565b5b600083013567ffffffffffffffff81111561260f5761260e612533565b5b61261b858286016125bb565b925050602083013567ffffffffffffffff81111561263c5761263b612533565b5b612648858286016125bb565b9150509250929050565b6000602082840312156126685761266761252e565b5b600082013567ffffffffffffffff81111561268657612685612533565b5b612692848285016125bb565b91505092915050565b60006040820190506126b060008301856124fa565b6126bd60208301846124fa565b9392505050565b600080604083850312156126db576126da61252e565b5b60006126e985828601612561565b925050602083013567ffffffffffffffff81111561270a57612709612533565b5b612716858286016125bb565b9150509250929050565b60007fff0000000000000000000000000000000000000000000000000000000000000082169050919050565b61275581612720565b82525050565b600081519050919050565b600082825260208201905092915050565b60005b8381101561279557808201518184015260208101905061277a565b60008484015250505050565b6000601f19601f8301169050919050565b60006127bd8261275b565b6127c78185612766565b93506127d7818560208601612777565b6127e0816127a1565b840191505092915050565b6127f4816124ce565b82525050565b61280381612538565b82525050565b6000819050919050565b61281c81612809565b82525050565b600081519050919050565b600082825260208201905092915050565b6000819050602082019050919050565b612857816124ce565b82525050565b6000612869838361284e565b60208301905092915050565b6000602082019050919050565b600061288d82612822565b612897818561282d565b93506128a28361283e565b8060005b838110156128d35781516128ba888261285d565b97506128c583612875565b9250506001810190506128a6565b5085935050505092915050565b600060e0820190506128f5600083018a61274c565b818103602083015261290781896127b2565b9050818103604083015261291b81886127b2565b905061292a60608301876127eb565b61293760808301866127fa565b61294460a0830185612813565b81810360c08301526129568184612882565b905098975050505050505050565b600060208201905061297960008301846127fa565b92915050565b600060408284031215612995576129946125b6565b5b81905092915050565b600080604083850312156129b5576129b461252e565b5b60006129c385828601612561565b925050602083013567ffffffffffffffff8111156129e4576129e3612533565b5b6129f08582860161297f565b9150509250929050565b600081519050919050565b600082825260208201905092915050565b6000612a21826129fa565b612a2b8185612a05565b9350612a3b818560208601612777565b612a44816127a1565b840191505092915050565b60006020820190508181036000830152612a698184612a16565b905092915050565b7f4f6e6c7920466163746f72792063616e2063616c6c2074686973000000000000600082015250565b6000612aa7601a83612766565b9150612ab282612a71565b602082019050919050565b60006020820190508181036000830152612ad681612a9a565b9050919050565b600080fd5b7f4e487b7100000000000000000000000000000000000000000000000000000000600052604160045260246000fd5b612b1a826127a1565b810181811067ffffffffffffffff82111715612b3957612b38612ae2565b5b80604052505050565b6000612b4c612524565b9050612b588282612b11565b919050565b600080fd5b600080fd5b600080fd5b600067ffffffffffffffff821115612b8757612b86612ae2565b5b612b90826127a1565b9050602081019050919050565b82818337600083830152505050565b6000612bbf612bba84612b6c565b612b42565b905082815260208101848484011115612bdb57612bda612b67565b5b612be6848285612b9d565b509392505050565b600082601f830112612c0357612c02612b62565b5b8135612c13848260208601612bac565b91505092915050565b600060208284031215612c3257612c31612add565b5b612c3c6020612b42565b9050600082013567ffffffffffffffff811115612c5c57612c5b612b5d565b5b612c6884828501612bee565b60008301525092915050565b6000612c803683612c1c565b9050919050565b6000606082019050612c9c60008301866127fa565b612ca960208301856127fa565b612cb660408301846124fa565b949350505050565b60008115159050919050565b612cd381612cbe565b8114612cde57600080fd5b50565b600081519050612cf081612cca565b92915050565b600060208284031215612d0c57612d0b61252e565b5b6000612d1a84828501612ce1565b91505092915050565b612d2c816124ce565b8114612d3757600080fd5b50565b600081519050612d4981612d23565b92915050565b600060208284031215612d6557612d6461252e565b5b6000612d7384828501612d3a565b91505092915050565b6000604082019050612d9160008301856127fa565b612d9e60208301846124fa565b9392505050565b7f696e76616c696420746f6b656e00000000000000000000000000000000000000600082015250565b6000612ddb600d83612766565b9150612de682612da5565b602082019050919050565b60006020820190508181036000830152612e0a81612dce565b9050919050565b612e1a81612809565b8114612e2557600080fd5b50565b600081359050612e3781612e11565b92915050565b600060408284031215612e5357612e52612add565b5b612e5d6040612b42565b90506000612e6d84828501612e28565b600083015250602082013567ffffffffffffffff811115612e9157612e90612b5d565b5b612e9d84828501612bee565b60208301525092915050565b6000612eb53683612e3d565b9050919050565b6000604082019050612ed16000830185612813565b612ede6020830184612813565b9392505050565b600060ff82169050919050565b612efb81612ee5565b82525050565b6000604082019050612f166000830185612ef2565b8181036020830152612f288184612a16565b90509392505050565b612f3a816124ce565b8114612f4557600080fd5b50565b600081519050612f5781612f31565b92915050565b600060208284031215612f7357612f7261252e565b5b6000612f8184828501612f48565b91505092915050565b6000612f9d612f9884612b6c565b612b42565b905082815260208101848484011115612fb957612fb8612b67565b5b612fc4848285612777565b509392505050565b600082601f830112612fe157612fe0612b62565b5b8151612ff1848260208601612f8a565b91505092915050565b6000602082840312156130105761300f61252e565b5b600082015167ffffffffffffffff81111561302e5761302d612533565b5b61303a84828501612fcc565b91505092915050565b7f4e487b7100000000000000000000000000000000000000000000000000000000600052602260045260246000fd5b6000600282049050600182168061308a57607f821691505b60208210810361309d5761309c613043565b5b50919050565b600060408201905081810360008301526130bd8185612a16565b90506130cc6020830184612ef2565b9392505050565b60006060820190506130e86000830186612ef2565b81810360208301526130fa8185612a16565b9050818103604083015261310e8184612a16565b9050949350505050565b7f4e487b7100000000000000000000000000000000000000000000000000000000600052602160045260246000fd5b7f45434453413a20696e76616c6964207369676e61747572650000000000000000600082015250565b600061317d601883612766565b915061318882613147565b602082019050919050565b600060208201905081810360008301526131ac81613170565b9050919050565b7f45434453413a20696e76616c6964207369676e6174757265206c656e67746800600082015250565b60006131e9601f83612766565b91506131f4826131b3565b602082019050919050565b60006020820190508181036000830152613218816131dc565b9050919050565b7f45434453413a20696e76616c6964207369676e6174757265202773272076616c60008201527f7565000000000000000000000000000000000000000000000000000000000000602082015250565b600061327b602283612766565b91506132868261321f565b604082019050919050565b600060208201905081810360008301526132aa8161326e565b9050919050565b6000819050919050565b6132cc6132c782612809565b6132b1565b82525050565b60006132de82846132bb565b60208201915081905092915050565b600060a0820190506133026000830188612813565b61330f6020830187612813565b61331c6040830186612813565b61332960608301856127eb565b61333660808301846127fa565b9695505050505050565b60006080820190506133556000830187612813565b6133626020830186612ef2565b61336f6040830185612813565b61337c6060830184612813565b9594505050505056fea2646970667358221220f44567e0d5643cc7ab4e10f79740cc9a6eaa5cf88cdae7d575c46d6e885f790064736f6c63430008140033",
  "devdoc": {
    "events": {
      "EIP712DomainChanged()": {
        "details": "MAY be emitted to signal that the domain could have changed."
      }
    },
    "kind": "dev",
    "methods": {
      "eip712Domain()": {
        "details": "See {EIP-5267}. _Available since v4.9._"
      }
    },
    "version": 1
  },
  "userdoc": {
    "errors": {
      "SignerNotMessageSender()": [
        {
          "notice": "Emitted when the signer is not the message sender"
        }
      ],
      "SignerNotOwner()": [
        {
          "notice": "Emitted when the signer is not the specified owner"
        }
      ]
    },
    "kind": "user",
    "methods": {},
    "version": 1
  },
  "storageLayout": {
    "storage": [
      {
        "astId": 10007,
        "contract": "contracts/PairFHE.sol:EncryptedPair",
        "label": "_nameFallback",
        "offset": 0,
        "slot": "0",
        "type": "t_string_storage"
      },
      {
        "astId": 10009,
        "contract": "contracts/PairFHE.sol:EncryptedPair",
        "label": "_versionFallback",
        "offset": 0,
        "slot": "1",
        "type": "t_string_storage"
      },
      {
        "astId": 11813,
        "contract": "contracts/PairFHE.sol:EncryptedPair",
        "label": "token0",
        "offset": 0,
        "slot": "2",
        "type": "t_contract(IEncryptedERC20)11803"
      },
      {
        "astId": 11816,
        "contract": "contracts/PairFHE.sol:EncryptedPair",
        "label": "token1",
        "offset": 0,
        "slot": "3",
        "type": "t_contract(IEncryptedERC20)11803"
      },
      {
        "astId": 11818,
        "contract": "contracts/PairFHE.sol:EncryptedPair",
        "label": "factory",
        "offset": 0,
        "slot": "4",
        "type": "t_address"
      },
      {
        "astId": 11821,
        "contract": "contracts/PairFHE.sol:EncryptedPair",
        "label": "reserve0",
        "offset": 0,
        "slot": "5",
        "type": "t_userDefinedValueType(euint32)12"
      },
      {
        "astId": 11824,
        "contract": "contracts/PairFHE.sol:EncryptedPair",
        "label": "reserve1",
        "offset": 0,
        "slot": "6",
        "type": "t_userDefinedValueType(euint32)12"
      },
      {
        "astId": 11827,
        "contract": "contracts/PairFHE.sol:EncryptedPair",
        "label": "totalSupply",
        "offset": 0,
        "slot": "7",
        "type": "t_userDefinedValueType(euint32)12"
      },
      {
        "astId": 11832,
        "contract": "contracts/PairFHE.sol:EncryptedPair",
        "label": "balances",
        "offset": 0,
        "slot": "8",
        "type": "t_mapping(t_address,t_userDefinedValueType(euint32)12)"
      }
    ],
    "types": {
      "t_address": {
        "encoding": "inplace",
        "label": "address",
        "numberOfBytes": "20"
      },
      "t_contract(IEncryptedERC20)11803": {
        "encoding": "inplace",
        "label": "contract IEncryptedERC20",
        "numberOfBytes": "20"
      },
      "t_mapping(t_address,t_userDefinedValueType(euint32)12)": {
        "encoding": "mapping",
        "key": "t_address",
        "label": "mapping(address => euint32)",
        "numberOfBytes": "32",
        "value": "t_userDefinedValueType(euint32)12"
      },
      "t_string_storage": {
        "encoding": "bytes",
        "label": "string",
        "numberOfBytes": "32"
      },
      "t_userDefinedValueType(euint32)12": {
        "encoding": "inplace",
        "label": "euint32",
        "numberOfBytes": "32"
      }
    }
  }
}