{
  "address": "0x6F950700E929A1f9a98Da7Ae3b0d49b2731c3090",
  "abi": [
    {
      "inputs": [
        {
          "internalType": "string",
          "name": "name_",
          "type": "string"
        },
        {
          "internalType": "string",
          "name": "symbol_",
          "type": "string"
        }
      ],
      "stateMutability": "nonpayable",
      "type": "constructor"
    },
    {
      "inputs": [],
      "name": "InvalidShortString",
      "type": "error"
    },
    {
      "inputs": [],
      "name": "SignerNotMessageSender",
      "type": "error"
    },
    {
      "inputs": [],
      "name": "SignerNotOwner",
      "type": "error"
    },
    {
      "inputs": [
        {
          "internalType": "string",
          "name": "str",
          "type": "string"
        }
      ],
      "name": "StringTooLong",
      "type": "error"
    },
    {
      "anonymous": false,
      "inputs": [
        {
          "indexed": true,
          "internalType": "address",
          "name": "owner",
          "type": "address"
        },
        {
          "indexed": true,
          "internalType": "address",
          "name": "spender",
          "type": "address"
        }
      ],
      "name": "Approval",
      "type": "event"
    },
    {
      "anonymous": false,
      "inputs": [],
      "name": "EIP712DomainChanged",
      "type": "event"
    },
    {
      "anonymous": false,
      "inputs": [
        {
          "indexed": true,
          "internalType": "address",
          "name": "to",
          "type": "address"
        },
        {
          "indexed": false,
          "internalType": "uint32",
          "name": "amount",
          "type": "uint32"
        }
      ],
      "name": "Mint",
      "type": "event"
    },
    {
      "anonymous": false,
      "inputs": [
        {
          "indexed": true,
          "internalType": "address",
          "name": "previousOwner",
          "type": "address"
        },
        {
          "indexed": true,
          "internalType": "address",
          "name": "newOwner",
          "type": "address"
        }
      ],
      "name": "OwnershipTransferStarted",
      "type": "event"
    },
    {
      "anonymous": false,
      "inputs": [
        {
          "indexed": true,
          "internalType": "address",
          "name": "previousOwner",
          "type": "address"
        },
        {
          "indexed": true,
          "internalType": "address",
          "name": "newOwner",
          "type": "address"
        }
      ],
      "name": "OwnershipTransferred",
      "type": "event"
    },
    {
      "anonymous": false,
      "inputs": [
        {
          "indexed": true,
          "internalType": "address",
          "name": "from",
          "type": "address"
        },
        {
          "indexed": true,
          "internalType": "address",
          "name": "to",
          "type": "address"
        }
      ],
      "name": "Transfer",
      "type": "event"
    },
    {
      "inputs": [
        {
          "internalType": "address",
          "name": "wallet",
          "type": "address"
        }
      ],
      "name": "EuintbalanceOf",
      "outputs": [
        {
          "internalType": "euint32",
          "name": "",
          "type": "uint256"
        }
      ],
      "stateMutability": "view",
      "type": "function"
    },
    {
      "inputs": [],
      "name": "acceptOwnership",
      "outputs": [],
      "stateMutability": "nonpayable",
      "type": "function"
    },
    {
      "inputs": [
        {
          "internalType": "address",
          "name": "owner",
          "type": "address"
        },
        {
          "internalType": "address",
          "name": "spender",
          "type": "address"
        },
        {
          "components": [
            {
              "internalType": "bytes32",
              "name": "publicKey",
              "type": "bytes32"
            },
            {
              "internalType": "bytes",
              "name": "signature",
              "type": "bytes"
            }
          ],
          "internalType": "struct Permission",
          "name": "permission",
          "type": "tuple"
        }
      ],
      "name": "allowance",
      "outputs": [
        {
          "internalType": "bytes",
          "name": "",
          "type": "bytes"
        }
      ],
      "stateMutability": "view",
      "type": "function"
    },
    {
      "inputs": [
        {
          "internalType": "address",
          "name": "spender",
          "type": "address"
        },
        {
          "internalType": "euint32",
          "name": "amount",
          "type": "uint256"
        }
      ],
      "name": "approve",
      "outputs": [
        {
          "internalType": "bool",
          "name": "",
          "type": "bool"
        }
      ],
      "stateMutability": "nonpayable",
      "type": "function"
    },
    {
      "inputs": [
        {
          "internalType": "address",
          "name": "spender",
          "type": "address"
        },
        {
          "components": [
            {
              "internalType": "bytes",
              "name": "data",
              "type": "bytes"
            }
          ],
          "internalType": "struct inEuint32",
          "name": "encryptedAmount",
          "type": "tuple"
        }
      ],
      "name": "approve",
      "outputs": [
        {
          "internalType": "bool",
          "name": "",
          "type": "bool"
        }
      ],
      "stateMutability": "nonpayable",
      "type": "function"
    },
    {
      "inputs": [
        {
          "internalType": "address",
          "name": "wallet",
          "type": "address"
        },
        {
          "components": [
            {
              "internalType": "bytes32",
              "name": "publicKey",
              "type": "bytes32"
            },
            {
              "internalType": "bytes",
              "name": "signature",
              "type": "bytes"
            }
          ],
          "internalType": "struct Permission",
          "name": "permission",
          "type": "tuple"
        }
      ],
      "name": "balanceOf",
      "outputs": [
        {
          "internalType": "bytes",
          "name": "",
          "type": "bytes"
        }
      ],
      "stateMutability": "view",
      "type": "function"
    },
    {
      "inputs": [],
      "name": "eip712Domain",
      "outputs": [
        {
          "internalType": "bytes1",
          "name": "fields",
          "type": "bytes1"
        },
        {
          "internalType": "string",
          "name": "name",
          "type": "string"
        },
        {
          "internalType": "string",
          "name": "version",
          "type": "string"
        },
        {
          "internalType": "uint256",
          "name": "chainId",
          "type": "uint256"
        },
        {
          "internalType": "address",
          "name": "verifyingContract",
          "type": "address"
        },
        {
          "internalType": "bytes32",
          "name": "salt",
          "type": "bytes32"
        },
        {
          "internalType": "uint256[]",
          "name": "extensions",
          "type": "uint256[]"
        }
      ],
      "stateMutability": "view",
      "type": "function"
    },
    {
      "inputs": [
        {
          "internalType": "uint32",
          "name": "mintedAmount",
          "type": "uint32"
        }
      ],
      "name": "mint",
      "outputs": [],
      "stateMutability": "nonpayable",
      "type": "function"
    },
    {
      "inputs": [],
      "name": "name",
      "outputs": [
        {
          "internalType": "string",
          "name": "",
          "type": "string"
        }
      ],
      "stateMutability": "view",
      "type": "function"
    },
    {
      "inputs": [],
      "name": "owner",
      "outputs": [
        {
          "internalType": "address",
          "name": "",
          "type": "address"
        }
      ],
      "stateMutability": "view",
      "type": "function"
    },
    {
      "inputs": [],
      "name": "pendingOwner",
      "outputs": [
        {
          "internalType": "address",
          "name": "",
          "type": "address"
        }
      ],
      "stateMutability": "view",
      "type": "function"
    },
    {
      "inputs": [],
      "name": "renounceOwnership",
      "outputs": [],
      "stateMutability": "nonpayable",
      "type": "function"
    },
    {
      "inputs": [],
      "name": "symbol",
      "outputs": [
        {
          "internalType": "string",
          "name": "",
          "type": "string"
        }
      ],
      "stateMutability": "view",
      "type": "function"
    },
    {
      "inputs": [],
      "name": "totalSupply",
      "outputs": [
        {
          "internalType": "uint32",
          "name": "",
          "type": "uint32"
        }
      ],
      "stateMutability": "view",
      "type": "function"
    },
    {
      "inputs": [
        {
          "internalType": "address",
          "name": "to",
          "type": "address"
        },
        {
          "components": [
            {
              "internalType": "bytes",
              "name": "data",
              "type": "bytes"
            }
          ],
          "internalType": "struct inEuint32",
          "name": "encryptedAmount",
          "type": "tuple"
        }
      ],
      "name": "transfer",
      "outputs": [
        {
          "internalType": "bool",
          "name": "",
          "type": "bool"
        }
      ],
      "stateMutability": "nonpayable",
      "type": "function"
    },
    {
      "inputs": [
        {
          "internalType": "address",
          "name": "to",
          "type": "address"
        },
        {
          "internalType": "euint32",
          "name": "amount",
          "type": "uint256"
        }
      ],
      "name": "transfer",
      "outputs": [
        {
          "internalType": "bool",
          "name": "",
          "type": "bool"
        }
      ],
      "stateMutability": "nonpayable",
      "type": "function"
    },
    {
      "inputs": [
        {
          "internalType": "address",
          "name": "from",
          "type": "address"
        },
        {
          "internalType": "address",
          "name": "to",
          "type": "address"
        },
        {
          "internalType": "euint32",
          "name": "amount",
          "type": "uint256"
        }
      ],
      "name": "transferFrom",
      "outputs": [
        {
          "internalType": "bool",
          "name": "",
          "type": "bool"
        }
      ],
      "stateMutability": "nonpayable",
      "type": "function"
    },
    {
      "inputs": [
        {
          "internalType": "address",
          "name": "from",
          "type": "address"
        },
        {
          "internalType": "address",
          "name": "to",
          "type": "address"
        },
        {
          "components": [
            {
              "internalType": "bytes",
              "name": "data",
              "type": "bytes"
            }
          ],
          "internalType": "struct inEuint32",
          "name": "encryptedAmount",
          "type": "tuple"
        }
      ],
      "name": "transferFrom",
      "outputs": [
        {
          "internalType": "bool",
          "name": "",
          "type": "bool"
        }
      ],
      "stateMutability": "nonpayable",
      "type": "function"
    },
    {
      "inputs": [
        {
          "internalType": "address",
          "name": "newOwner",
          "type": "address"
        }
      ],
      "name": "transferOwnership",
      "outputs": [],
      "stateMutability": "nonpayable",
      "type": "function"
    }
  ],
  "transactionHash": "0xb24eec98bc93ad7b8e52e3d8ed91c9f31f0c75e1d4a97fcb7bf32ccc6484186d",
  "args": [
    "ETHER",
    "ETH"
  ],
  "numDeployments": 4,
  "solcInputHash": "b981e83bc18079b45d233899dbd2df97",
  "bytecode": "0x6101606040523480156200001257600080fd5b5060405162003aea38038062003aea833981810160405281019062000038919062000566565b6040518060400160405280601181526020017f4668656e6978205065726d697373696f6e0000000000000000000000000000008152506040518060400160405280600381526020017f312e300000000000000000000000000000000000000000000000000000000000815250620000ba600083620001a060201b90919060201c565b6101208181525050620000d8600182620001a060201b90919060201c565b6101408181525050818051906020012060e08181525050808051906020012061010081815250504660a0818152505062000117620001f860201b60201c565b608081815250503073ffffffffffffffffffffffffffffffffffffffff1660c08173ffffffffffffffffffffffffffffffffffffffff1681525050505062000174620001686200025560201b60201c565b6200025d60201b60201c565b816004908162000185919062000836565b50806005908162000197919062000836565b50505062000b03565b6000602083511015620001c657620001be836200029660201b60201c565b9050620001f2565b82620001d8836200030360201b60201c565b6000019081620001e9919062000836565b5060ff60001b90505b92915050565b60007f8b73c3c69bb8fe3d512ecc4cf759cc79239f7b179b0ffacaa9a75d522b39400f60e0516101005146306040516020016200023a9594939291906200098e565b60405160208183030381529060405280519060200120905090565b600033905090565b600360006101000a81549073ffffffffffffffffffffffffffffffffffffffff021916905562000293816200030d60201b60201c565b50565b600080829050601f81511115620002e657826040517f305a27a9000000000000000000000000000000000000000000000000000000008152600401620002dd919062000a3d565b60405180910390fd5b805181620002f49062000a93565b60001c1760001b915050919050565b6000819050919050565b6000600260009054906101000a900473ffffffffffffffffffffffffffffffffffffffff16905081600260006101000a81548173ffffffffffffffffffffffffffffffffffffffff021916908373ffffffffffffffffffffffffffffffffffffffff1602179055508173ffffffffffffffffffffffffffffffffffffffff168173ffffffffffffffffffffffffffffffffffffffff167f8be0079c531659141344cd1fd0a4f28419497f9722a3daafe3b4186f6b6457e060405160405180910390a35050565b6000604051905090565b600080fd5b600080fd5b600080fd5b600080fd5b6000601f19601f8301169050919050565b7f4e487b7100000000000000000000000000000000000000000000000000000000600052604160045260246000fd5b6200043c82620003f1565b810181811067ffffffffffffffff821117156200045e576200045d62000402565b5b80604052505050565b600062000473620003d3565b905062000481828262000431565b919050565b600067ffffffffffffffff821115620004a457620004a362000402565b5b620004af82620003f1565b9050602081019050919050565b60005b83811015620004dc578082015181840152602081019050620004bf565b60008484015250505050565b6000620004ff620004f98462000486565b62000467565b9050828152602081018484840111156200051e576200051d620003ec565b5b6200052b848285620004bc565b509392505050565b600082601f8301126200054b576200054a620003e7565b5b81516200055d848260208601620004e8565b91505092915050565b6000806040838503121562000580576200057f620003dd565b5b600083015167ffffffffffffffff811115620005a157620005a0620003e2565b5b620005af8582860162000533565b925050602083015167ffffffffffffffff811115620005d357620005d2620003e2565b5b620005e18582860162000533565b9150509250929050565b600081519050919050565b7f4e487b7100000000000000000000000000000000000000000000000000000000600052602260045260246000fd5b600060028204905060018216806200063e57607f821691505b602082108103620006545762000653620005f6565b5b50919050565b60008190508160005260206000209050919050565b60006020601f8301049050919050565b600082821b905092915050565b600060088302620006be7fffffffffffffffffffffffffffffffffffffffffffffffffffffffffffffffff826200067f565b620006ca86836200067f565b95508019841693508086168417925050509392505050565b6000819050919050565b6000819050919050565b600062000717620007116200070b84620006e2565b620006ec565b620006e2565b9050919050565b6000819050919050565b6200073383620006f6565b6200074b62000742826200071e565b8484546200068c565b825550505050565b600090565b6200076262000753565b6200076f81848462000728565b505050565b5b8181101562000797576200078b60008262000758565b60018101905062000775565b5050565b601f821115620007e657620007b0816200065a565b620007bb846200066f565b81016020851015620007cb578190505b620007e3620007da856200066f565b83018262000774565b50505b505050565b600082821c905092915050565b60006200080b60001984600802620007eb565b1980831691505092915050565b6000620008268383620007f8565b9150826002028217905092915050565b6200084182620005eb565b67ffffffffffffffff8111156200085d576200085c62000402565b5b62000869825462000625565b620008768282856200079b565b600060209050601f831160018114620008ae576000841562000899578287015190505b620008a5858262000818565b86555062000915565b601f198416620008be866200065a565b60005b82811015620008e857848901518255600182019150602085019450602081019050620008c1565b8683101562000908578489015162000904601f891682620007f8565b8355505b6001600288020188555050505b505050505050565b6000819050919050565b62000932816200091d565b82525050565b6200094381620006e2565b82525050565b600073ffffffffffffffffffffffffffffffffffffffff82169050919050565b6000620009768262000949565b9050919050565b620009888162000969565b82525050565b600060a082019050620009a5600083018862000927565b620009b4602083018762000927565b620009c3604083018662000927565b620009d2606083018562000938565b620009e160808301846200097d565b9695505050505050565b600082825260208201905092915050565b600062000a0982620005eb565b62000a158185620009eb565b935062000a27818560208601620004bc565b62000a3281620003f1565b840191505092915050565b6000602082019050818103600083015262000a598184620009fc565b905092915050565b600081519050919050565b6000819050602082019050919050565b600062000a8a82516200091d565b80915050919050565b600062000aa08262000a61565b8262000aac8462000a6c565b905062000ab98162000a7c565b9250602082101562000afc5762000af77fffffffffffffffffffffffffffffffffffffffffffffffffffffffffffffffff836020036008026200067f565b831692505b5050919050565b60805160a05160c05160e051610100516101205161014051612f8c62000b5e60003960006108440152600061081001526000611d7f01526000611d5e0152600061156f015260006115c5015260006115ee0152612f8c6000f3fe608060405234801561001057600080fd5b50600436106101215760003560e01c806379ba5097116100ad578063a71bbebe11610071578063a71bbebe14610326578063a9059cbb14610342578063d432419c14610372578063e30c3978146103a2578063f2fde38b146103c057610121565b806379ba50971461028c5780637e58bb381461029657806384b0196e146102c65780638da5cb5b146102ea57806395d89b411461030857610121565b806323b872dd116100f457806323b872dd146101c257806327c11056146101f25780633808c58b146102225780633b676ccf14610252578063715018a61461028257610121565b806306fdde0314610126578063095ea7b3146101445780630c63813b1461017457806318160ddd146101a4575b600080fd5b61012e6103dc565b60405161013b919061200a565b60405180910390f35b61015e600480360381019061015991906120d4565b61046e565b60405161016b919061212f565b60405180910390f35b61018e6004803603810190610189919061216e565b6104e4565b60405161019b919061212f565b60405180910390f35b6101ac61050c565b6040516101b991906121e9565b60405180910390f35b6101dc60048036038101906101d79190612204565b610526565b6040516101e9919061212f565b60405180910390f35b61020c6004803603810190610207919061216e565b610554565b604051610219919061212f565b60405180910390f35b61023c60048036038101906102379190612257565b61057c565b60405161024991906122bf565b60405180910390f35b61026c600480360381019061026791906122f9565b6105c5565b60405161027991906123bd565b60405180910390f35b61028a610732565b005b610294610746565b005b6102b060048036038101906102ab91906123df565b6107d3565b6040516102bd919061212f565b60405180910390f35b6102ce6107fd565b6040516102e1979695949392919061257e565b60405180910390f35b6102f26108ff565b6040516102ff9190612602565b60405180910390f35b610310610929565b60405161031d919061200a565b60405180910390f35b610340600480360381019061033b9190612649565b6109bb565b005b61035c600480360381019061035791906120d4565b610ae4565b604051610369919061212f565b60405180910390f35b61038c60048036038101906103879190612676565b610b49565b60405161039991906123bd565b60405180910390f35b6103aa610c7d565b6040516103b79190612602565b60405180910390f35b6103da60048036038101906103d59190612257565b610ca7565b005b6060600480546103eb90612701565b80601f016020809104026020016040519081016040528092919081815260200182805461041790612701565b80156104645780601f1061043957610100808354040283529160200191610464565b820191906000526020600020905b81548152906001019060200180831161044757829003601f168201915b5050505050905090565b60008033905061047f818585610d54565b8373ffffffffffffffffffffffffffffffffffffffff168173ffffffffffffffffffffffffffffffffffffffff167ff37f546c25e850257cc0c94f92bec94a17e2f0e884ddda268a25d8144b70eb6a60405160405180910390a3600191505092915050565b6000610501836104fc846104f7906128c9565b610dda565b610ae4565b506001905092915050565b6000600360149054906101000a900463ffffffff16905090565b6000803390506000610539868386610df0565b905061054786868684610e94565b6001925050509392505050565b60006105718361056c84610567906128c9565b610dda565b61046e565b506001905092915050565b6000600660008373ffffffffffffffffffffffffffffffffffffffff1673ffffffffffffffffffffffffffffffffffffffff168152602001908152602001600020549050919050565b6060816105d190612974565b60006106287f6bdaeb2d29561f159c7ef98b16b27015fb2aeb87209c7ee656226d912f59927d836000015160405160200161060d929190612987565b60405160208183030381529060405280519060200120611032565b9050600061063a82846020015161104c565b90503373ffffffffffffffffffffffffffffffffffffffff168173ffffffffffffffffffffffffffffffffffffffff16146106a1576040517f3093a27700000000000000000000000000000000000000000000000000000000815260040160405180910390fd5b3373ffffffffffffffffffffffffffffffffffffffff168773ffffffffffffffffffffffffffffffffffffffff16148061070657503373ffffffffffffffffffffffffffffffffffffffff168673ffffffffffffffffffffffffffffffffffffffff16145b61070f57600080fd5b61072661071c8888611073565b8660000135611196565b93505050509392505050565b61073a6111cc565b610744600061124a565b565b600061075061127b565b90508073ffffffffffffffffffffffffffffffffffffffff16610771610c7d565b73ffffffffffffffffffffffffffffffffffffffff16146107c7576040517f08c379a00000000000000000000000000000000000000000000000000000000081526004016107be90612a22565b60405180910390fd5b6107d08161124a565b50565b60006107f184846107ec856107e7906128c9565b610dda565b610526565b50600190509392505050565b60006060806000806000606061083d60007f000000000000000000000000000000000000000000000000000000000000000061128390919063ffffffff16565b61087160017f000000000000000000000000000000000000000000000000000000000000000061128390919063ffffffff16565b46306000801b600067ffffffffffffffff81111561089257610891612737565b5b6040519080825280602002602001820160405280156108c05781602001602082028036833780820191505090505b507f0f00000000000000000000000000000000000000000000000000000000000000959493929190965096509650965096509650965090919293949596565b6000600260009054906101000a900473ffffffffffffffffffffffffffffffffffffffff16905090565b60606005805461093890612701565b80601f016020809104026020016040519081016040528092919081815260200182805461096490612701565b80156109b15780601f10610986576101008083540402835291602001916109b1565b820191906000526020600020905b81548152906001019060200180831161099457829003601f168201915b5050505050905090565b610a12600660003373ffffffffffffffffffffffffffffffffffffffff1673ffffffffffffffffffffffffffffffffffffffff16815260200190815260200160002054610a0d8363ffffffff16611333565b611347565b600660003373ffffffffffffffffffffffffffffffffffffffff1673ffffffffffffffffffffffffffffffffffffffff1681526020019081526020016000208190555080600360149054906101000a900463ffffffff16610a739190612a71565b600360146101000a81548163ffffffff021916908363ffffffff1602179055503373ffffffffffffffffffffffffffffffffffffffff167f3e5818968bcdc7c820f0f44b24095a2e03c5411ad461dcb4f3528629389b0f8c82604051610ad991906121e9565b60405180910390a250565b600080610b3083600660003373ffffffffffffffffffffffffffffffffffffffff1673ffffffffffffffffffffffffffffffffffffffff168152602001908152602001600020546113bf565b9050610b3e33858584610e94565b600191505092915050565b606081610b5590612974565b6000610bac7f6bdaeb2d29561f159c7ef98b16b27015fb2aeb87209c7ee656226d912f59927d8360000151604051602001610b91929190612987565b60405160208183030381529060405280519060200120611032565b90506000610bbe82846020015161104c565b90503373ffffffffffffffffffffffffffffffffffffffff168173ffffffffffffffffffffffffffffffffffffffff1614610c25576040517f3093a27700000000000000000000000000000000000000000000000000000000815260040160405180910390fd5b610c72600660008873ffffffffffffffffffffffffffffffffffffffff1673ffffffffffffffffffffffffffffffffffffffff168152602001908152602001600020548660000135611196565b935050505092915050565b6000600360009054906101000a900473ffffffffffffffffffffffffffffffffffffffff16905090565b610caf6111cc565b80600360006101000a81548173ffffffffffffffffffffffffffffffffffffffff021916908373ffffffffffffffffffffffffffffffffffffffff1602179055508073ffffffffffffffffffffffffffffffffffffffff16610d0f6108ff565b73ffffffffffffffffffffffffffffffffffffffff167f38d16b8cac22d99fc7c124b9cd0de2d3fa1faef420bfe791d8c362d765e2270060405160405180910390a350565b80600760008573ffffffffffffffffffffffffffffffffffffffff1673ffffffffffffffffffffffffffffffffffffffff16815260200190815260200160002060008473ffffffffffffffffffffffffffffffffffffffff1673ffffffffffffffffffffffffffffffffffffffff16815260200190815260200160002081905550505050565b6000610de98260000151611438565b9050919050565b600080610dfd8585611073565b90506000610e0b84836113bf565b90506000610e5885600660008a73ffffffffffffffffffffffffffffffffffffffff1673ffffffffffffffffffffffffffffffffffffffff168152602001908152602001600020546113bf565b90506000610e66828461144c565b9050610e868888610e8184610e7b898c6114c5565b896114d9565b610d54565b809450505050509392505050565b610ef0600660008573ffffffffffffffffffffffffffffffffffffffff1673ffffffffffffffffffffffffffffffffffffffff16815260200190815260200160002054610eeb8385610ee66000611333565b6114d9565b611557565b600660008573ffffffffffffffffffffffffffffffffffffffff1673ffffffffffffffffffffffffffffffffffffffff16815260200190815260200160002081905550610f8f600660008673ffffffffffffffffffffffffffffffffffffffff1673ffffffffffffffffffffffffffffffffffffffff16815260200190815260200160002054610f8a8385610f856000611333565b6114d9565b6114c5565b600660008673ffffffffffffffffffffffffffffffffffffffff1673ffffffffffffffffffffffffffffffffffffffff168152602001908152602001600020819055508273ffffffffffffffffffffffffffffffffffffffff168473ffffffffffffffffffffffffffffffffffffffff167f4853ae1b4d437c4255ac16cd3ceda3465975023f27cb141584cd9d44440fed8260405160405180910390a350505050565b600061104561103f61156b565b83611622565b9050919050565b600080600061105b8585611663565b91509150611068816116b4565b819250505092915050565b60006110fa600760008573ffffffffffffffffffffffffffffffffffffffff1673ffffffffffffffffffffffffffffffffffffffff16815260200190815260200160002060008473ffffffffffffffffffffffffffffffffffffffff1673ffffffffffffffffffffffffffffffffffffffff1681526020019081526020016000205461181a565b1561118357600760008473ffffffffffffffffffffffffffffffffffffffff1673ffffffffffffffffffffffffffffffffffffffff16815260200190815260200160002060008373ffffffffffffffffffffffffffffffffffffffff1673ffffffffffffffffffffffffffffffffffffffff168152602001908152602001600020549050611190565b61118d6000611333565b90505b92915050565b60606111a18361181a565b6111b2576111af6000611333565b92505b60008390506111c360028285611827565b91505092915050565b6111d461127b565b73ffffffffffffffffffffffffffffffffffffffff166111f26108ff565b73ffffffffffffffffffffffffffffffffffffffff1614611248576040517f08c379a000000000000000000000000000000000000000000000000000000000815260040161123f90612af5565b60405180910390fd5b565b600360006101000a81549073ffffffffffffffffffffffffffffffffffffffff0219169055611278816118dd565b50565b600033905090565b606060ff60001b83146112a057611299836119a3565b905061132d565b8180546112ac90612701565b80601f01602080910402602001604051908101604052809291908181526020018280546112d890612701565b80156113255780601f106112fa57610100808354040283529160200191611325565b820191906000526020600020905b81548152906001019060200180831161130857829003601f168201915b505050505090505b92915050565b6000611340826002611a17565b9050919050565b60006113528361181a565b611363576113606000611333565b92505b61136c8261181a565b61137d5761137a6000611333565b91505b6000839050600083905060006113b160028484608073ffffffffffffffffffffffffffffffffffffffff16622df619611ab9565b905080935050505092915050565b60006113ca8361181a565b6113db576113d86000611333565b92505b6113e48261181a565b6113f5576113f26000611333565b91505b60008390506000839050600061142a60028484608073ffffffffffffffffffffffffffffffffffffffff1663eb274b77611ab9565b905080935050505092915050565b6000611445826002611b4d565b9050919050565b600061145783611be7565b611468576114656000611bf4565b92505b61147182611be7565b6114825761147f6000611bf4565b91505b6000839050600083905060006114b760008484608073ffffffffffffffffffffffffffffffffffffffff1663ae104cfd611ab9565b905080935050505092915050565b60006114d18383611c08565b905092915050565b60006114e484611be7565b6114f5576114f26000611bf4565b93505b6114fe8361181a565b61150f5761150c6000611333565b92505b6115188261181a565b611529576115266000611333565b91505b60008490506000849050600084905060006115476002858585611c81565b9050809450505050509392505050565b60006115638383611347565b905092915050565b60007f000000000000000000000000000000000000000000000000000000000000000073ffffffffffffffffffffffffffffffffffffffff163073ffffffffffffffffffffffffffffffffffffffff161480156115e757507f000000000000000000000000000000000000000000000000000000000000000046145b15611614577f0000000000000000000000000000000000000000000000000000000000000000905061161f565b61161c611d39565b90505b90565b60006040517f190100000000000000000000000000000000000000000000000000000000000081528360028201528260228201526042812091505092915050565b60008060418351036116a45760008060006020860151925060408601519150606086015160001a905061169887828585611dcf565b945094505050506116ad565b60006002915091505b9250929050565b600060048111156116c8576116c7612b15565b5b8160048111156116db576116da612b15565b5b031561181757600160048111156116f5576116f4612b15565b5b81600481111561170857611707612b15565b5b03611748576040517f08c379a000000000000000000000000000000000000000000000000000000000815260040161173f90612b90565b60405180910390fd5b6002600481111561175c5761175b612b15565b5b81600481111561176f5761176e612b15565b5b036117af576040517f08c379a00000000000000000000000000000000000000000000000000000000081526004016117a690612bfc565b60405180910390fd5b600360048111156117c3576117c2612b15565b5b8160048111156117d6576117d5612b15565b5b03611816576040517f08c379a000000000000000000000000000000000000000000000000000000000815260040161180d90612c8e565b60405180910390fd5b5b50565b6000808214159050919050565b6060608073ffffffffffffffffffffffffffffffffffffffff1663a1848ff38561185086611eb1565b856040516020016118619190612ccf565b6040516020818303038152906040526040518463ffffffff1660e01b815260040161188e93929190612d06565b600060405180830381865afa1580156118ab573d6000803e3d6000fd5b505050506040513d6000823e3d601f19601f820116820180604052508101906118d49190612dbb565b90509392505050565b6000600260009054906101000a900473ffffffffffffffffffffffffffffffffffffffff16905081600260006101000a81548173ffffffffffffffffffffffffffffffffffffffff021916908373ffffffffffffffffffffffffffffffffffffffff1602179055508173ffffffffffffffffffffffffffffffffffffffff168173ffffffffffffffffffffffffffffffffffffffff167f8be0079c531659141344cd1fd0a4f28419497f9722a3daafe3b4186f6b6457e060405160405180910390a35050565b606060006119b083611f0e565b90506000602067ffffffffffffffff8111156119cf576119ce612737565b5b6040519080825280601f01601f191660200182016040528015611a015781602001600182028036833780820191505090505b5090508181528360208201528092505050919050565b60006060608073ffffffffffffffffffffffffffffffffffffffff166319e1c5c4611a4186611eb1565b856040518363ffffffff1660e01b8152600401611a5f929190612e04565b600060405180830381865afa158015611a7c573d6000803e3d6000fd5b505050506040513d6000823e3d601f19601f82011682018060405250810190611aa59190612dbb565b9050611ab081611f5e565b91505092915050565b60006060838388611ac989611eb1565b611ad289611eb1565b6040518463ffffffff1660e01b8152600401611af093929190612d06565b600060405180830381865afa158015611b0d573d6000803e3d6000fd5b505050506040513d6000823e3d601f19601f82011682018060405250810190611b369190612dbb565b9050611b4181611f6c565b91505095945050505050565b60006060608073ffffffffffffffffffffffffffffffffffffffff16635fa55ca784866040518363ffffffff1660e01b8152600401611b8d929190612e34565b600060405180830381865afa158015611baa573d6000803e3d6000fd5b505050506040513d6000823e3d601f19601f82011682018060405250810190611bd39190612dbb565b9050611bde81611f5e565b91505092915050565b6000808214159050919050565b6000611c01826000611a17565b9050919050565b6000611c138361181a565b611c2457611c216000611333565b92505b611c2d8261181a565b611c3e57611c3b6000611333565b91505b600083905060008390506000611c7360028484608073ffffffffffffffffffffffffffffffffffffffff1663cc2cbeff611ab9565b905080935050505092915050565b60006060608073ffffffffffffffffffffffffffffffffffffffff1663c2d9695287611cac88611eb1565b611cb588611eb1565b611cbe88611eb1565b6040518563ffffffff1660e01b8152600401611cdd9493929190612e64565b600060405180830381865afa158015611cfa573d6000803e3d6000fd5b505050506040513d6000823e3d601f19601f82011682018060405250810190611d239190612dbb565b9050611d2e81611f5e565b915050949350505050565b60007f8b73c3c69bb8fe3d512ecc4cf759cc79239f7b179b0ffacaa9a75d522b39400f7f00000000000000000000000000000000000000000000000000000000000000007f00000000000000000000000000000000000000000000000000000000000000004630604051602001611db4959493929190612ebe565b60405160208183030381529060405280519060200120905090565b6000807f7fffffffffffffffffffffffffffffff5d576e7357a4501ddfe92f46681b20a08360001c1115611e0a576000600391509150611ea8565b600060018787878760405160008152602001604052604051611e2f9493929190612f11565b6020604051602081039080840390855afa158015611e51573d6000803e3d6000fd5b505050602060405103519050600073ffffffffffffffffffffffffffffffffffffffff168173ffffffffffffffffffffffffffffffffffffffff1603611e9f57600060019250925050611ea8565b80600092509250505b94509492505050565b6060602067ffffffffffffffff811115611ece57611ecd612737565b5b6040519080825280601f01601f191660200182016040528015611f005781602001600182028036833780820191505090505b509050816020820152919050565b60008060ff8360001c169050601f811115611f55576040517fb3512b0c00000000000000000000000000000000000000000000000000000000815260040160405180910390fd5b80915050919050565b600060208201519050919050565b600060208201519050919050565b600081519050919050565b600082825260208201905092915050565b60005b83811015611fb4578082015181840152602081019050611f99565b60008484015250505050565b6000601f19601f8301169050919050565b6000611fdc82611f7a565b611fe68185611f85565b9350611ff6818560208601611f96565b611fff81611fc0565b840191505092915050565b600060208201905081810360008301526120248184611fd1565b905092915050565b6000604051905090565b600080fd5b600080fd5b600073ffffffffffffffffffffffffffffffffffffffff82169050919050565b600061206b82612040565b9050919050565b61207b81612060565b811461208657600080fd5b50565b60008135905061209881612072565b92915050565b6000819050919050565b6120b18161209e565b81146120bc57600080fd5b50565b6000813590506120ce816120a8565b92915050565b600080604083850312156120eb576120ea612036565b5b60006120f985828601612089565b925050602061210a858286016120bf565b9150509250929050565b60008115159050919050565b61212981612114565b82525050565b60006020820190506121446000830184612120565b92915050565b600080fd5b6000602082840312156121655761216461214a565b5b81905092915050565b6000806040838503121561218557612184612036565b5b600061219385828601612089565b925050602083013567ffffffffffffffff8111156121b4576121b361203b565b5b6121c08582860161214f565b9150509250929050565b600063ffffffff82169050919050565b6121e3816121ca565b82525050565b60006020820190506121fe60008301846121da565b92915050565b60008060006060848603121561221d5761221c612036565b5b600061222b86828701612089565b935050602061223c86828701612089565b925050604061224d868287016120bf565b9150509250925092565b60006020828403121561226d5761226c612036565b5b600061227b84828501612089565b91505092915050565b6000819050919050565b60006122a96122a461229f8461209e565b612284565b61209e565b9050919050565b6122b98161228e565b82525050565b60006020820190506122d460008301846122b0565b92915050565b6000604082840312156122f0576122ef61214a565b5b81905092915050565b60008060006060848603121561231257612311612036565b5b600061232086828701612089565b935050602061233186828701612089565b925050604084013567ffffffffffffffff8111156123525761235161203b565b5b61235e868287016122da565b9150509250925092565b600081519050919050565b600082825260208201905092915050565b600061238f82612368565b6123998185612373565b93506123a9818560208601611f96565b6123b281611fc0565b840191505092915050565b600060208201905081810360008301526123d78184612384565b905092915050565b6000806000606084860312156123f8576123f7612036565b5b600061240686828701612089565b935050602061241786828701612089565b925050604084013567ffffffffffffffff8111156124385761243761203b565b5b6124448682870161214f565b9150509250925092565b60007fff0000000000000000000000000000000000000000000000000000000000000082169050919050565b6124838161244e565b82525050565b6124928161209e565b82525050565b6124a181612060565b82525050565b6000819050919050565b6124ba816124a7565b82525050565b600081519050919050565b600082825260208201905092915050565b6000819050602082019050919050565b6124f58161209e565b82525050565b600061250783836124ec565b60208301905092915050565b6000602082019050919050565b600061252b826124c0565b61253581856124cb565b9350612540836124dc565b8060005b8381101561257157815161255888826124fb565b975061256383612513565b925050600181019050612544565b5085935050505092915050565b600060e082019050612593600083018a61247a565b81810360208301526125a58189611fd1565b905081810360408301526125b98188611fd1565b90506125c86060830187612489565b6125d56080830186612498565b6125e260a08301856124b1565b81810360c08301526125f48184612520565b905098975050505050505050565b60006020820190506126176000830184612498565b92915050565b612626816121ca565b811461263157600080fd5b50565b6000813590506126438161261d565b92915050565b60006020828403121561265f5761265e612036565b5b600061266d84828501612634565b91505092915050565b6000806040838503121561268d5761268c612036565b5b600061269b85828601612089565b925050602083013567ffffffffffffffff8111156126bc576126bb61203b565b5b6126c8858286016122da565b9150509250929050565b7f4e487b7100000000000000000000000000000000000000000000000000000000600052602260045260246000fd5b6000600282049050600182168061271957607f821691505b60208210810361272c5761272b6126d2565b5b50919050565b600080fd5b7f4e487b7100000000000000000000000000000000000000000000000000000000600052604160045260246000fd5b61276f82611fc0565b810181811067ffffffffffffffff8211171561278e5761278d612737565b5b80604052505050565b60006127a161202c565b90506127ad8282612766565b919050565b600080fd5b600080fd5b600080fd5b600067ffffffffffffffff8211156127dc576127db612737565b5b6127e582611fc0565b9050602081019050919050565b82818337600083830152505050565b600061281461280f846127c1565b612797565b9050828152602081018484840111156128305761282f6127bc565b5b61283b8482856127f2565b509392505050565b600082601f830112612858576128576127b7565b5b8135612868848260208601612801565b91505092915050565b60006020828403121561288757612886612732565b5b6128916020612797565b9050600082013567ffffffffffffffff8111156128b1576128b06127b2565b5b6128bd84828501612843565b60008301525092915050565b60006128d53683612871565b9050919050565b6128e5816124a7565b81146128f057600080fd5b50565b600081359050612902816128dc565b92915050565b60006040828403121561291e5761291d612732565b5b6129286040612797565b90506000612938848285016128f3565b600083015250602082013567ffffffffffffffff81111561295c5761295b6127b2565b5b61296884828501612843565b60208301525092915050565b60006129803683612908565b9050919050565b600060408201905061299c60008301856124b1565b6129a960208301846124b1565b9392505050565b7f4f776e61626c6532537465703a2063616c6c6572206973206e6f74207468652060008201527f6e6577206f776e65720000000000000000000000000000000000000000000000602082015250565b6000612a0c602983611f85565b9150612a17826129b0565b604082019050919050565b60006020820190508181036000830152612a3b816129ff565b9050919050565b7f4e487b7100000000000000000000000000000000000000000000000000000000600052601160045260246000fd5b6000612a7c826121ca565b9150612a87836121ca565b9250828201905063ffffffff811115612aa357612aa2612a42565b5b92915050565b7f4f776e61626c653a2063616c6c6572206973206e6f7420746865206f776e6572600082015250565b6000612adf602083611f85565b9150612aea82612aa9565b602082019050919050565b60006020820190508181036000830152612b0e81612ad2565b9050919050565b7f4e487b7100000000000000000000000000000000000000000000000000000000600052602160045260246000fd5b7f45434453413a20696e76616c6964207369676e61747572650000000000000000600082015250565b6000612b7a601883611f85565b9150612b8582612b44565b602082019050919050565b60006020820190508181036000830152612ba981612b6d565b9050919050565b7f45434453413a20696e76616c6964207369676e6174757265206c656e67746800600082015250565b6000612be6601f83611f85565b9150612bf182612bb0565b602082019050919050565b60006020820190508181036000830152612c1581612bd9565b9050919050565b7f45434453413a20696e76616c6964207369676e6174757265202773272076616c60008201527f7565000000000000000000000000000000000000000000000000000000000000602082015250565b6000612c78602283611f85565b9150612c8382612c1c565b604082019050919050565b60006020820190508181036000830152612ca781612c6b565b9050919050565b6000819050919050565b612cc9612cc4826124a7565b612cae565b82525050565b6000612cdb8284612cb8565b60208201915081905092915050565b600060ff82169050919050565b612d0081612cea565b82525050565b6000606082019050612d1b6000830186612cf7565b8181036020830152612d2d8185612384565b90508181036040830152612d418184612384565b9050949350505050565b6000612d5e612d59846127c1565b612797565b905082815260208101848484011115612d7a57612d796127bc565b5b612d85848285611f96565b509392505050565b600082601f830112612da257612da16127b7565b5b8151612db2848260208601612d4b565b91505092915050565b600060208284031215612dd157612dd0612036565b5b600082015167ffffffffffffffff811115612def57612dee61203b565b5b612dfb84828501612d8d565b91505092915050565b60006040820190508181036000830152612e1e8185612384565b9050612e2d6020830184612cf7565b9392505050565b6000604082019050612e496000830185612cf7565b8181036020830152612e5b8184612384565b90509392505050565b6000608082019050612e796000830187612cf7565b8181036020830152612e8b8186612384565b90508181036040830152612e9f8185612384565b90508181036060830152612eb38184612384565b905095945050505050565b600060a082019050612ed360008301886124b1565b612ee060208301876124b1565b612eed60408301866124b1565b612efa6060830185612489565b612f076080830184612498565b9695505050505050565b6000608082019050612f2660008301876124b1565b612f336020830186612cf7565b612f4060408301856124b1565b612f4d60608301846124b1565b9594505050505056fea26469706673582212204a472083128f0331a9bb4ff9644a345109558b45de90696f41d3ec6b4b64968464736f6c63430008140033",
  "devdoc": {
    "events": {
      "EIP712DomainChanged()": {
        "details": "MAY be emitted to signal that the domain could have changed."
      }
    },
    "kind": "dev",
    "methods": {
      "acceptOwnership()": {
        "details": "The new owner accepts the ownership transfer."
      },
      "eip712Domain()": {
        "details": "See {EIP-5267}. _Available since v4.9._"
      },
      "owner()": {
        "details": "Returns the address of the current owner."
      },
      "pendingOwner()": {
        "details": "Returns the address of the pending owner."
      },
      "renounceOwnership()": {
        "details": "Leaves the contract without owner. It will not be possible to call `onlyOwner` functions. Can only be called by the current owner. NOTE: Renouncing ownership will leave the contract without an owner, thereby disabling any functionality that is only available to the owner."
      },
      "transferOwnership(address)": {
        "details": "Starts the ownership transfer of the contract to a new account. Replaces the pending transfer if there is one. Can only be called by the current owner."
      }
    },
    "version": 1
  },
  "userdoc": {
    "errors": {
      "SignerNotMessageSender()": [
        {
          "notice": "Emitted when the signer is not the message sender"
        }
      ],
      "SignerNotOwner()": [
        {
          "notice": "Emitted when the signer is not the specified owner"
        }
      ]
    },
    "kind": "user",
    "methods": {},
    "version": 1
  },
  "storageLayout": {
    "storage": [
      {
        "astId": 10007,
        "contract": "contracts/EncryptedERC20.sol:EncryptedERC20",
        "label": "_nameFallback",
        "offset": 0,
        "slot": "0",
        "type": "t_string_storage"
      },
      {
        "astId": 10009,
        "contract": "contracts/EncryptedERC20.sol:EncryptedERC20",
        "label": "_versionFallback",
        "offset": 0,
        "slot": "1",
        "type": "t_string_storage"
      },
      {
        "astId": 8810,
        "contract": "contracts/EncryptedERC20.sol:EncryptedERC20",
        "label": "_owner",
        "offset": 0,
        "slot": "2",
        "type": "t_address"
      },
      {
        "astId": 8923,
        "contract": "contracts/EncryptedERC20.sol:EncryptedERC20",
        "label": "_pendingOwner",
        "offset": 0,
        "slot": "3",
        "type": "t_address"
      },
      {
        "astId": 11178,
        "contract": "contracts/EncryptedERC20.sol:EncryptedERC20",
        "label": "_totalSupply",
        "offset": 20,
        "slot": "3",
        "type": "t_uint32"
      },
      {
        "astId": 11180,
        "contract": "contracts/EncryptedERC20.sol:EncryptedERC20",
        "label": "_name",
        "offset": 0,
        "slot": "4",
        "type": "t_string_storage"
      },
      {
        "astId": 11182,
        "contract": "contracts/EncryptedERC20.sol:EncryptedERC20",
        "label": "_symbol",
        "offset": 0,
        "slot": "5",
        "type": "t_string_storage"
      },
      {
        "astId": 11187,
        "contract": "contracts/EncryptedERC20.sol:EncryptedERC20",
        "label": "balances",
        "offset": 0,
        "slot": "6",
        "type": "t_mapping(t_address,t_userDefinedValueType(euint32)12)"
      },
      {
        "astId": 11194,
        "contract": "contracts/EncryptedERC20.sol:EncryptedERC20",
        "label": "allowances",
        "offset": 0,
        "slot": "7",
        "type": "t_mapping(t_address,t_mapping(t_address,t_userDefinedValueType(euint32)12))"
      }
    ],
    "types": {
      "t_address": {
        "encoding": "inplace",
        "label": "address",
        "numberOfBytes": "20"
      },
      "t_mapping(t_address,t_mapping(t_address,t_userDefinedValueType(euint32)12))": {
        "encoding": "mapping",
        "key": "t_address",
        "label": "mapping(address => mapping(address => euint32))",
        "numberOfBytes": "32",
        "value": "t_mapping(t_address,t_userDefinedValueType(euint32)12)"
      },
      "t_mapping(t_address,t_userDefinedValueType(euint32)12)": {
        "encoding": "mapping",
        "key": "t_address",
        "label": "mapping(address => euint32)",
        "numberOfBytes": "32",
        "value": "t_userDefinedValueType(euint32)12"
      },
      "t_string_storage": {
        "encoding": "bytes",
        "label": "string",
        "numberOfBytes": "32"
      },
      "t_uint32": {
        "encoding": "inplace",
        "label": "uint32",
        "numberOfBytes": "4"
      },
      "t_userDefinedValueType(euint32)12": {
        "encoding": "inplace",
        "label": "euint32",
        "numberOfBytes": "32"
      }
    }
  }
}